:1000000072C000009FC000009DC000009BC00000A7
:1000100099C0000097C0000095C0000093C0000088
:1000200091C000008FC000008DC000008BC0000098
:1000300089C0000087C0000085C0000083C00000A8
:1000400081C000007FC000007DC000007BC00000B8
:1000500079C0000077C0000075C00000D3C3000065
:1000600071C0000099C300006EC300006BC00000A7
:1000700069C0000067C0000065C0000063C00000E8
:1000800061C000005FC000005DC000005BC00000F8
:1000900059C0000057C0000055C0000053C0000008
:1000A00051C000004FC000004DC000004BC0000018
:1000B00049C0000047C0000045C0000043C0000028
:1000C00041C000003FC000003DC000003BC0000038
:1000D00039C0000037C0000035C0000033C0000048
:1000E00031C000004C0411241FBECFEFD1E2DEBFAF
:1000F000CDBF00E00CBF23E0A2E5B2E001C01D923D
:10010000A834B207E1F712E0A0E0B2E0E6E1F2E1E4
:1001100000E00BBF02C007900D92A235B107D9F7DE
:1001200010E0C3E7D0E000E005C021970109802F6F
:10013000FE0152D6C237D10780E00807B1F7EBD3F2
:100140000C9409095DCFEFE5F2E0A089B18982E066
:100150008C93A485B5851C92A685B78580E18C9388
:10016000108EA489B58986E08C93A289B3898C917D
:1001700080618C93A289B3898C9188608C93A289C9
:10018000B3898C9180688C930288F389E02D8081FB
:100190008F7D808308950895CF92DF92EF92FF9232
:1001A0000F931F93CF93DF936C017A018B01C0E013
:1001B000D0E0CE15DF0581F0D8016D918D01D6011B
:1001C000ED91FC910190F081E02DC6011995892BEC
:1001D00011F02196EECF7E01C701DF91CF911F91E3
:1001E0000F91FF90EF90DF90CF90089580E090E026
:1001F0000895FC01538D448D252F30E0842F90E02D
:10020000821B930B541710F0CF9608950197089511
:10021000FC01918D828D981761F0828DDF01A80F0E
:10022000B11D5D968C91928D9F5F9F73928F90E030
:1002300008958FEF9FEF0895FC01918D828D98179F
:1002400031F0828DE80FF11D858D90E008958FEFDC
:100250009FEF0895FC01918D228D892F90E0805CA5
:100260009F4F821B91098F73992708958FE592E024
:10027000F1DF21E0892B09F420E0822F0895FC01B1
:10028000848DDF01A80FB11DA35ABF4F2C91848D1F
:1002900090E001968F739927848FA689B7892C9354
:1002A000A089B1898C91837080648C93938D848DA7
:1002B000981306C00288F389E02D80818F7D8083AA
:1002C0000895EF92FF920F931F93CF93DF93EC016A
:1002D00081E0888F9B8D8C8D981305C0E889F98902
:1002E000808185FD25C0F62E0B8D10E00F5F1F4F1E
:1002F0000F731127E02E8C8DE8120BC00FB607FC90
:10030000FACFE889F989808185FFF5CFCE01B7DF83
:10031000F2CF8B8DFE01E80FF11DE35AFF4FF08203
:100320009FB7F8940B8FEA89FB89808180620AC0AD
:100330009FB7F894EE89FF896083E889F989808105
:100340008370806480839FBF81E090E0DF91CF91D4
:100350001F910F91FF90EF900895CF93DF93EC01E1
:10036000888D8823C1F0EA89FB89808185FD05C0DD
:10037000A889B9898C9186FD0EC00FB607FCF5CF10
:10038000808185FFF2CFA889B9898C9185FFEDCF57
:10039000CE0175DFE8CFDF91CF91089580E090E046
:1003A000892B19F063DF811125C080E090E0892B53
:1003B00041F080E090E0892B21F00E940000811143
:1003C0001CC080E090E0892B41F080E090E0892B18
:1003D00021F00E940000811113C080E090E0892B81
:1003E000A1F080E090E0892B81F00E940000811153
:1003F0000AC008950E940000D8CF0E940000E1CFFB
:100400000E940000EACF0C94000008952FB7F894E2
:1004100060915702709158028091590290915A024E
:100420002FBF08950F931F93F1DF609367027093BE
:1004300068028093690290936A028FE592E0E8DE99
:1004400097FF1EC0E3DF00916702109168022091C0
:10045000690230916A02DC01CB01801B910BA20B77
:10046000B30B0091630210916402209165023091F8
:10047000660280179107A207B307F8F28FEF9FEF8C
:100480001F910F9108956115710579F0FB0101909D
:100490000020E9F73197AF01461B570BDC01ED91C6
:1004A000FC910280F381E02D199480E090E00895A2
:1004B0008F929F92AF92BF92EF92FF920F931F93F2
:1004C000CF93DF93CDB7DEB7A1970FB6F894DEBF19
:1004D0000FBECDBF7C01FA01CB0119A2223008F476
:1004E0002AE08E010F5D1F4F822E912CA12CB12C82
:1004F000BF01A50194014ED4F901CA0101501109AF
:100500006A3014F4605D01C0695CD8016C93232BE0
:10051000242B252B69F7B801C701B5DFA1960FB6CB
:10052000F894DEBF0FBECDBFDF91CF911F910F9129
:10053000FF90EF90BF90AF909F908F900895CF92D3
:10054000DF92EF92FF92CF93DF936B017C016DE21C
:100550008FE592E0B6DEEC0144275527BA014C192D
:100560005D096E097F092AE08FE592E0A1DF8C0F1B
:100570009D1FDF91CF91FF90EF90DF90CF90089576
:10058000CF93DF93AC01990F660B770B77FF04C015
:10059000CB01BA01D4DF04C02AE08FE592E088DF06
:1005A000EC0167E272E08FE592E06DDF8C0F9D1F3A
:1005B000DF91CF910895AC01990F660B770B77FF10
:1005C00003C0CB01BA01BBCF2AE08FE592E070CF28
:1005D0005ACF0F931F93CF93DF938C01EB01FC0154
:1005E00080819181009731F0688179816115710571
:1005F00099F492D488819981F801918380838A81CA
:100600009B81938382838C819D81958384831982CE
:1006100018821B821A820EC0F801428153812C81FC
:100620003D814217530728F3EDD58C819D81F80158
:10063000958384831D821C82DF91CF911F910F913E
:100640000895D3D50F931F93CF93DF93EC01888147
:100650009981009729F02A813B812617370780F47A
:100660008B016F5F7F4FE1D4009761F0998388839E
:100670001B830A832C813D81232B11F4FC01108202
:1006800081E001C080E0DF91CF911F910F9108952B
:10069000CF93DF93EC01198218821B821A821D828C
:1006A0001C8260E070E0CEDF2881398181110EC0AC
:1006B0002115310511F0C9012FD4198218821D822C
:1006C0001C821B821A82DF91CF9108951D821C82A9
:1006D00069E272E0C901DF91CF9194C5EF92FF9278
:1006E0000F931F93CF93DF931F921F92CDB7DEB767
:1006F0008C01CEDF97DE97FD1CC089831A82F8013A
:10070000E480F580FFEFEF1AFF0AB701C8019ADF16
:10071000882381F3F8012081318184819581BE0194
:100720006F5F7F4F820F931F6DD5F801F582E482D2
:10073000E1CFC8010F900F90DF91CF911F910F91E2
:10074000FF90EF9008951F920F920FB60F92112411
:100750000BB60F922F933F934F935F936F937F93BB
:100760008F939F93AF93BF93EF93FF938FE592E0A7
:1007700086DDFF91EF91BF91AF919F918F917F9116
:100780006F915F914F913F912F910F900BBE0F9002
:100790000FBE0F901F9018951F920F920FB60F92D9
:1007A00011240BB60F922F938F939F93EF93FF9388
:1007B000E0916F02F09170028081E0917502F091FA
:1007C000760282FD12C09081809178028F5F8F73D4
:1007D00020917902821751F0E0917802F0E0E15A1D
:1007E000FD4F958F8093780201C08081FF91EF913A
:1007F0009F918F912F910F900BBE0F900FBE0F9076
:100800001F9018951F920F920FB60F9211242F93DD
:100810003F938F939F93AF93BF9380915702909193
:100820005802A0915902B0915A023091560223E029
:10083000230F2D3720F40196A11DB11D05C026E818
:10084000230F0296A11DB11D2093560280935702DB
:1008500090935802A0935902B0935A028091520289
:1008600090915302A0915402B09155020196A11D9E
:10087000B11D8093520290935302A0935402B093FF
:100880005502BF91AF919F918F913F912F910F9002
:100890000FBE0F901F901895EFE5F2E013821282C1
:1008A00088EE93E0A0E0B0E084839583A683B783CD
:1008B0008AE092E09183808385EC90E0958784873D
:1008C00084EC90E09787868780EC90E0918B808B1A
:1008D00081EC90E0938B828B82EC90E0958B848B03
:1008E00086EC90E0978B868B118E128E138E148E71
:1008F000ECEFF2E0168217821086118612861386BC
:100900001486158616861786108A118A128A138A0B
:10091000148A158A0895CF93DF93CDB7DEB72C974D
:100920000FB6F894DEBF0FBECDBF789484B5826059
:1009300084BD84B5816084BD85B5826085BD85B583
:10094000816085BD80916E00816080936E00109201
:10095000810080918100826080938100809181007C
:10096000816080938100809180008160809380000D
:100970008091B10084608093B1008091B00081606B
:100980008093B0008091910082608093910080916B
:1009900091008160809391008091900081608093AC
:1009A00090008091A10082608093A1008091A100BD
:1009B00081608093A1008091A00081608093A0005D
:1009C00080912101826080932101809121018160C9
:1009D000809321018091200181608093200180918A
:1009E0007A00846080937A0080917A00826080939C
:1009F0007A0080917A00816080937A0080917A00F9
:100A0000806880937A001092C10010924003109287
:100A1000410310924203109243031092FE0210927F
:100A2000FF021092000310920103F0DC6B017C01C5
:100A30004B015C0128EB820E2BE0921EA11CB11C25
:100A4000E5DC6C157D058E059F0528F0861697065A
:100A5000A806B906A8F78FE592E090933F0380932C
:100A60003E0371DBD3DC6093FE027093FF02809340
:100A700000039093010368E172E080913E0390913E
:100A80003F03A6DDC3DC6B017C014B015C013AE056
:100A9000830E911CA11CB11CB9DC6C157D058E0563
:100AA0009F0528F086169706A806B906A8F781E0E4
:100AB0008093120348DB84EF882E99249394A12C11
:100AC000B12CA4DC672B682B692B39F49FDC6230D6
:100AD00071058105910508F4FCC098DCC0905B02AB
:100AE000D0905C02E0905D02F0905E026C157D0596
:100AF0008E059F0540F460935B0270935C028093C7
:100B00005D0290935E02C0905B02D0905C02E09028
:100B10005D02F0905E029B01AC012C193D094E096B
:100B20005F0969017A013AEFC316D104E104F104C7
:100B300008F4CFC060935B0270935C0280935D0207
:100B400090935E0280920A0390920B03A0920C0392
:100B5000B0920D0310920E0310920F031092100327
:100B6000109211038091020390910303A09104035A
:100B7000B09105038093060390930703A0930803A5
:100B8000B093090343DC60930203709303038093E3
:100B90000403909305033ADC6093FE027093FF0216
:100BA000809300039093010331DC6B017C016AE2C6
:100BB00072E080913E0390913F030ADD2AE041E01C
:100BC00050E060E070E080913E0390913F0370DC64
:100BD00061E372E080913E0390913F03F9DC2AE0EB
:100BE000B701A60180913E0390913F0361DC63E36E
:100BF00072E080913E0390913F03EADC8091020312
:100C000090910303A0910403B0910503B701A601DD
:100C1000481B590B6A0B7B0B2AE080913E03909195
:100C20003F0346DC63E372E080913E0390913F0313
:100C3000CFDC409102035091030360910403709153
:100C400005038091060390910703A0910803B091DA
:100C50000903481B590B6A0B7B0B2AE080913E036A
:100C600090913F0325DC65E372E080913E03909113
:100C70003F03AEDCCBDBAB01BC012AE080913E033D
:100C800090913F0315DCE0903E03F0903F0367E353
:100C900072E0C701F8DB67E272E0C701F4DBB6DBA4
:100CA0006B017C012B013C0145E0440E511C611C91
:100CB000711CACDB6C157D058E059F0508F063C0CB
:100CC000A5DB609302037093030380930403909366
:100CD00005038FE592E0BEDA05970CF452C08FE56C
:100CE00092E0B8DA4DDC8FE592E092DAD82E8FE50B
:100CF00092E08EDA8D3249F48FE592E089DAE82EBF
:100D00008FE592E085DA8D3299F0CE010796C0DC4E
:100D1000CE010196E3DCBE016F5F7F4FCE010796E7
:100D200058DC89819A81F8D08F819885F5D029C0C7
:100D30008FE592E06DDAF82E6EE372E08FE592E0D7
:100D400047DC8D2DDD0C990B36DC63E472E08FE51A
:100D500092E03EDC8E2DEE0C990B2DDC68E472E007
:100D60008FE592E035DC8F2DFF0C990B09DC6DE4EB
:100D700072E08FE592E087DB67E272E08FE592E058
:100D800082DB0CDB9ECE461657066806790608F015
:100D900090CF96CFA1E21A2EAA1BBB1BFD010DC05E
:100DA000AA1FBB1FEE1FFF1FA217B307E407F5071B
:100DB00020F0A21BB30BE40BF50B661F771F881FF7
:100DC000991F1A9469F760957095809590959B018D
:100DD000AC01BD01CF010895EE0FFF1F881F8BBF2F
:100DE0000790F691E02D19940F931F93CF93DF9303
:100DF0008230910510F482E090E0E0914603F0919A
:100E0000470320E030E0A0E0B0E0309719F14081E6
:100E100051810281138148175907C8F0841795073B
:100E200069F4109731F012960C93129713961C9355
:100E300027C0009346031093470322C021153105B4
:100E400019F04217530718F49A01BD01EF01DF01B1
:100E5000F801DBCF21153105F9F0281B390B2430BF
:100E6000310580F48A819B816115710521F0FB01B8
:100E70009383828304C09093470380934603FE01CB
:100E8000329644C0FE01E20FF31F819391932250EA
:100E90003109398328833AC02091440330914503B6
:100EA000232B41F420910202309103023093450339
:100EB0002093440320910002309101022115310555
:100EC00041F42DB73EB74091040250910502241B16
:100ED000350BE0914403F0914503E217F307A0F4CA
:100EE0002E1B3F0B2817390778F0AC014E5F5F4F80
:100EF0002417350748F04E0F5F1F5093450340936A
:100F000044038193919302C0E0E0F0E0CF01DF91D0
:100F1000CF911F910F910895CF93DF93009709F41C
:100F200081C0FC01329713821282A0914603B091D6
:100F30004703109781F420813181820F931F209104
:100F40004403309145032817390751F5F0934503C1
:100F5000E093440367C0ED0120E030E0CE17DF07E7
:100F600040F44A815B819E0141155105F1F0EA018F
:100F7000F5CFD383C28340815181840F951FC81759
:100F8000D90759F488819981840F951F029691831E
:100F900080838A819B81938382832115310529F483
:100FA000F0934703E09346033DC0E901FB83EA83E6
:100FB00049915991C40FD51FEC17FD0761F4808149
:100FC0009181840F951F0296E9019983888382811C
:100FD00093819B838A83E0E0F0E012968D919C914F
:100FE0001397009719F0FD01DC01F7CF8D919C91CB
:100FF00011979D012E5F3F4F820F931F2091440355
:10100000309145032817390769F4309729F4109275
:1010100047031092460302C013821282B093450325
:10102000A0934403DF91CF9108956F927F928F92A6
:101030009F92AF92BF92CF92DF92EF92FF920F9367
:101040001F93CF93DF93009781F4CB01DF91CF9172
:101050001F910F91FF90EF90DF90CF90BF90AF90D6
:101060009F908F907F906F90BFCEFC01E60FF71F8F
:101070009C0122503109E217F30708F4A5C0EC01E6
:10108000D9010D911C91119706171707A8F005308B
:10109000110508F497C0C80104978617970708F44C
:1010A00091C002501109061B170B019311936D9308
:1010B0007C93CF0131DF86C05B01A01AB10A4C01DD
:1010C000800E911EA0914603B0914703612C712CB4
:1010D000E12CF12C109709F446C08D919C91119749
:1010E000A815B905B1F56C0142E0C40ED11CCA14B3
:1010F000DB0478F14C018A189B08640142E0C40EBD
:10110000D11C1296BC9012971396AC91B5E0CB16F9
:10111000D10440F0B282A38391828082D9016D9381
:101120007C9309C00E5F1F4F800F911FF9019183BF
:101130008083EB2DFA2FE114F10431F0D7011396DF
:10114000FC93EE9312973EC0F0934703E09346035F
:1011500039C06816790608F43C017D0112960D909D
:10116000BC91A02DB7CF8091440390914503881680
:101170009906E1F466167706C8F480910002909112
:101180000102009741F48DB79EB74091040250913F
:101190000502841B950BE817F907B0F4F09345039B
:1011A000E0934403F901718360830CC0CB011CDE22
:1011B0007C01009749F0A801BE011BD0CE01ACDE36
:1011C000C70104C0CE0102C080E090E0DF91CF9162
:1011D0001F910F91FF90EF90DF90CF90BF90AF9055
:1011E0009F908F907F906F90089581E090E0F894A9
:1011F00010C0FB01DC0102C001900D924150504033
:10120000D8F70895FB01DC0101900D920020E1F771
:061210000895F894FFCFE1
:10121600000048038000000000006101CC00F900D6
:10122600AD012A0108011C01564D4450565F317C20
:10123600315F564D4450560D0A00564D4450455F99
:10124600003A323A007C005F564D44504500207803
:101256003A200020793A2000207A3A20005F5F5F2A
:021266005F0027
:00000001FF
