:1000000007C1000035C1000033C1000031C100004C
:100010002FC100002DC100002BC1000029C100002C
:1000200027C1000025C1000023C1000021C100003C
:100030001FC100001DC100001BC1000019C100004C
:1000400017C10000E2C6000013C1000011C100008A
:100050000FC100000DC100000BC1000005C600006B
:1000600007C10000CBC50000A0C5000001C1000011
:10007000FFC00000FDC00000FBC00000F9C0000090
:1000800097C60000F5C00000F3C00000F1C00000FA
:10009000EFC00000EDC00000EBC00000E9C00000B0
:1000A000E7C00000E5C0000056C60000E1C0000047
:1000B000DFC00000DDC00000DBC000001FC6000084
:1000C000D7C00000D5C00000D3C00000D1C00000E0
:1000D000CFC00000CDC00000CBC00000C9C00000F0
:1000E000C7C0000017031A0309030D0311035103CE
:1000F0001E03220328032C03300336033A033E0376
:100100005103440348034C0300002100240027004E
:100110002A002D0030003300010100000401070116
:100120000A0100002200250028002B002E003100CB
:10013000340002010000050108010B010505050559
:10014000070508080808020202020A0A080804044F
:10015000040401010101010101010303030303037D
:100160000303040707070C0C0C0C0C0C0C0C02020C
:10017000020206060606060606060B0B0B0B0B0B09
:100180000B0B010210202008081020401020408096
:10019000020102010804020101020408102040804B
:1001A00080402010080402018004020180402010D9
:1001B0000804020108040201010204081020408022
:1001C000010204081020408000000A0B02090C0DF7
:1001D0000E080703040100000000000000000000FA
:1001E000000000000000000000000000000000000F
:1001F00000000000121110000000000000000000CC
:1002000000000000000000000000000000003207B5
:1002100011241FBECFEFD1E2DEBFCDBF00E00CBF87
:1002200012E0A0E0B2E0E0EBF7E100E00BBF02C0BB
:1002300007900D92AA32B107D9F723E0AAE2B2E003
:1002400001C01D92A237B207E1F711E0C8E0D1E08A
:1002500000E006C021970109802FFE010E94B90924
:10026000C730D10780E00807A9F763D60C94D60BF6
:10027000C7CEFC019081903388F5818128E830E079
:10028000281B310987FD3395220F331F220F331F9F
:100290006217730784F0828148E552E0481B5109D8
:1002A00087FD5395440F551F440F551F9B0146175B
:1002B00057070CF49A0122503109220F331F4FB710
:1002C000F894892F90E0FC01EE0FFF1F8E0F9F1F07
:1002D000FC01EB52FD4F328321834FBF0895CF9233
:1002E000DF92EF92FF920F931F93CF93DF936C01F6
:1002F0007A018B01C0E0D0E0CE15DF0581F0D80196
:100300006D918D01D601ED91FC910190F081E02D70
:10031000C6011995892B11F02196EECF7E01C701F8
:10032000DF91CF911F910F91FF90EF90DF90CF90D1
:100330000895089580E090E00895FC01538D448D68
:10034000252F30E0842F90E0821B930B541710F080
:10035000CF96089501970895FC01918D828D98178D
:1003600061F0828DDF01A80FB11D5D968C91928D99
:100370009F5F9F73928F90E008958FEF9FEF089596
:100380002FB7F8948091340290913502A0913602F3
:10039000B09137022FBF8093400290934102A09307
:1003A0004202B093430288E392E0D6DF97FF26C073
:1003B0002FB7F8948091340290913502A0913602C3
:1003C000B09137022FBF409140025091410260919D
:1003D000420270914302841B950BA60BB70B409110
:1003E0003C0250913D0260913E0270913F028417A1
:1003F0009507A607B707B8F28FEF9FEF0895FC01A6
:10040000918D828D981731F0828DE80FF11D858DC9
:1004100090E008958FEF9FEF0895FC01918D228D5C
:10042000892F90E0805C9F4F821B91098F739927E1
:10043000089588E392E0F1DF21E0892B09F420E0C0
:10044000822F0895FC01848DDF01A80FB11DA35AEE
:10045000BF4F2C91848D90E001968F739927848FE4
:10046000A689B7892C93A089B1898C918370806407
:100470008C93938D848D981306C00288F389E02DA8
:1004800080818F7D80830895EF92FF920F931F9359
:10049000CF93DF93EC0181E0888F9B8D8C8D981337
:1004A00005C0E889F989808185FD25C0F62E0B8D70
:1004B00010E00F5F1F4F0F731127E02E8C8DE81295
:1004C0000BC00FB607FCFACFE889F989808185FF58
:1004D000F5CFCE01B7DFF2CF8B8DFE01E80FF11D16
:1004E000E35AFF4FF0829FB7F8940B8FEA89FB899C
:1004F000808180620AC09FB7F894EE89FF8960838B
:10050000E889F98980818370806480839FBF81E05E
:1005100090E0DF91CF911F910F91FF90EF900895A0
:10052000CF93DF93EC01888D8823C1F0EA89FB89A2
:10053000808185FD05C0A889B9898C9186FD0EC092
:100540000FB607FCF5CF808185FFF2CFA889B98966
:100550008C9185FFEDCFCE0175DFE8CFDF91CF9194
:10056000089580E090E0892B19F063DF811125C0A8
:1005700080E090E0892B41F080E090E0892B21F031
:100580000E94000081111CC080E090E0892B41F0A6
:1005900080E090E0892B21F00E940000811113C0BF
:1005A00080E090E0892BA1F080E090E0892B81F041
:1005B0000E94000081110AC008950E940000D8CF57
:1005C0000E940000E1CF0E940000EACF0C940000DE
:1005D0000895362F90E0FC01E853FE4F4491FC0152
:1005E000EE57FE4F2491FC01E45CFE4F9491992359
:1005F00009F46BC0442309F454C050E0FA01319768
:10060000E231F10508F04DC08827EE58FF4F8F4FBB
:10061000B0C6809180008F7707C0809180008F7D69
:1006200003C080918000877F809380003AC084B5AA
:100630008F7702C084B58F7D84BD33C08091B000B8
:100640008F7703C08091B0008F7D8093B00029C068
:10065000809190008F7707C0809190008F7D03C0BC
:1006600080919000877F809390001BC08091A000B4
:100670008F7707C08091A0008F7D03C08091A0007C
:10068000877F8093A0000DC0809120018F7707C0E5
:10069000809120018F7D03C080912001877F80930E
:1006A0002001E92FF0E0EE0FFF1FEE5DFE4FA59158
:1006B000B4919FB7F894311104C08C9120952823F0
:1006C00002C0EC912E2B2C939FBF08953FB7F89456
:1006D00080912F0290913002A0913102B0913202AC
:1006E00026B5A89B05C02F3F19F00196A11DB11D8D
:1006F0003FBFBA2FA92F982F8827820F911DA11DC8
:10070000B11DBC01CD0142E0660F771F881F991F04
:100710004A95D1F70895CF92DF92EF92FF920F930F
:100720001F93CF93DF936C018B017A01EC01C65DBF
:10073000DD4F888187FF04C0FB011182108224C035
:100740002CE02C9DC0012D9D900D11242881AC0121
:10075000420F511D27FD5A952091650330E0421745
:10076000530794F42881AC01420F511D27FD5A957F
:100770009A01FA01EE0FFF1F2E0F3F1FF901EB52F6
:10078000FD4F208126FD19C088818F5F88832CE072
:100790002C9DC0012D9D900D11242881AC01420F8C
:1007A000511D27FD5A952091650330E042175307EC
:1007B000B4F428812C303CF112C02881820F911DA5
:1007C00027FD9A95FC01EE0FFF1F8E0F9F1FFC0166
:1007D000EB52FD4F808160E08F73FBDED5CFF801D7
:1007E00080819181049680349C4918F480E49CE9CE
:1007F00004C0F801808191810496F7019183808380
:100800008FEF888344C0F801408151812881BC0169
:10081000620F711D27FD7A959B01FB01EE0FFF1FF3
:100820002E0F3F1FF901EB52FD4F21813281240F22
:10083000351FF701318320832881AC01420F511D00
:1008400027FD5A959A01FA01EE0FFF1F2E0F3F1F49
:10085000F901EB52FD4F208126FF19C02881820F3C
:10086000911D27FD9A95FC01EE0FFF1F8E0F9F1F14
:10087000FC01EB52FD4F808161E08F73DF91CF91DE
:100880001F910F91FF90EF90DF90CF90A2CEDF915C
:10089000CF911F910F91FF90EF90DF90CF9008952F
:1008A000CF93DF93EC01653614F064E603C06C3936
:1008B0000CF46CE96A838B81882311F061956A835B
:1008C0002A81822F220F990BAA0BBB0B9C01AD0131
:1008D0002C593F4F4F4F5F4FA8EEB3E003D528ECA4
:1008E00030E040E050E0E2D4CA01B90168517C4FE9
:1008F0008F4F9F4FCE010596DF91CF91BACCCF930A
:10090000DF93DC019C012B5F3F4F15968C9115976F
:10091000803308F072C014964C911497842F90E0A5
:10092000FC01EE57FE4F5491FC01E45CFE4F8491B4
:10093000882399F090E0880F991FFC01E85FFE4F33
:10094000C591D491FC01EE5DFE4F859194918FB7D6
:10095000F894E881E52BE8838FBF15968C91159765
:10096000E82FF0E0BF01660F771FE60FF71FEB528D
:10097000FD4F4F739081907C492B408316961C92BB
:10098000169717961C9217976CE0E7D49CE0899F06
:10099000E001112460E070E0AE01460F571FFA013C
:1009A000EE0FFF1F4E0F5F1FFA01EB52FD4F9081BC
:1009B00096FD16C06F5F7F4F6C30710569F781300F
:1009C00011F51092800082E08093810010928500E2
:1009D00010928400B19A80916F00826080936F00C2
:1009E0001596EC91F0E0CF01880F991FE80FF91FE1
:1009F000EB52FD4F8081806480836CED75E0C9010E
:100A0000DF91CF9136CC823061F4109290008093C8
:100A10009100109295001092940088BB8093710011
:100A2000DFCF833069F41092A00082E08093A100B0
:100A30001092A5001092A40089BB80937200D0CFC1
:100A40008111CECF1092200182E08093210110927B
:100A50002501109224018ABB80937300C1CF0097B7
:100A600061F0FC0101900020E9F73197AF01481BCC
:100A7000590BBC0188E392E032CC80E090E008950D
:100A80008F929F92AF92BF92CF92DF92EF92FF929E
:100A90000F931F93CF93DF93CDB7DEB7A1970FB618
:100AA000F894DEBF0FBECDBF6B017C0197FF28C05D
:100AB0006DE288E392E0E8DC8C0122273327A9016C
:100AC0002C193D094E095F0919A2CE0181967C01BE
:100AD0009AE0892E912CA12CB12CCA01B901A50153
:100AE00094010AD4605DF70162937F0121153105FD
:100AF0004105510591F7CF01B2DF800F911F1BC057
:100B00009B01AC0119A28E010F5D1F4F8AE0C82E18
:100B1000D12CE12CF12CCA01B901A7019601ECD32B
:100B2000605DF80162938F01211531054105510582
:100B300091F7CF0194DFA1960FB6F894DEBF0FBEF8
:100B4000CDBFDF91CF911F910F91FF90EF90DF907C
:100B5000CF90BF90AF909F908F9008950F931F9369
:100B6000CF93DF93EC0188819981009729F02A8146
:100B70003B812617370780F48B016F5F7F4F22D5AB
:100B8000009761F0998388831B830A832C813D81C0
:100B9000232B11F4FC01108281E001C080E0DF9181
:100BA000CF911F910F910895EDD51F920F920FB61F
:100BB0000F9211240BB60F922F933F934F935F9395
:100BC0006F937F938F939F93AF93BF93EF93FF9315
:100BD00088E392E037DCFF91EF91BF91AF919F9155
:100BE0008F917F916F915F914F913F912F910F90D6
:100BF0000BBE0F900FBE0F901F9018951F920F9273
:100C00000FB60F9211240BB60F922F938F939F93D1
:100C1000EF93FF93E0914802F09149028081E091C7
:100C20004E02F0914F0282FD12C0908180915102DC
:100C30008F5F8F7320915202821751F0E091510221
:100C4000F0E0E85CFD4F958F8093510201C08081F8
:100C5000FF91EF919F918F912F910F900BBE0F906D
:100C60000FBE0F901F9018951F920F920FB60F9204
:100C700011242F933F938F939F93AF93BF938091B2
:100C8000340290913502A0913602B0913702309132
:100C90002E0223E0230F2D3720F40196A11DB11D54
:100CA00005C026E8230F0296A11DB11D20932E0238
:100CB0008093340290933502A0933602B0933702AA
:100CC00080912F0290913002A0913102B0913202B6
:100CD0000196A11DB11D80932F0290933002A09325
:100CE0003102B0933202BF91AF919F918F913F91AA
:100CF0002F910F900FBE0F901F9018951F920F927B
:100D00000FB60F9211240BB60F922F933F934F9370
:100D10005F936F937F938F939F93AF93BF93EF9363
:100D2000FF9348E251E064E271E080E090E0F3DCA0
:100D3000FF91EF91BF91AF919F918F917F916F91B3
:100D40005F914F913F912F910F900BBE0F900FBE6F
:100D50000F901F9018951F920F920FB60F921124AB
:100D60000BB60F922F933F934F935F936F937F93A5
:100D70008F939F93AF93BF93EF93FF9348EA50E015
:100D800064EA70E083E090E0C6DCFF91EF91BF91F0
:100D9000AF919F918F917F916F915F914F913F9113
:100DA0002F910F900BBE0F900FBE0F901F901895B4
:100DB0001F920F920FB60F9211240BB60F922F9322
:100DC0003F934F935F936F937F938F939F93AF93D3
:100DD000BF93EF93FF9348E950E064E970E082E04D
:100DE00090E099DCFF91EF91BF91AF919F918F912E
:100DF0007F916F915F914F913F912F910F900BBE1B
:100E00000F900FBE0F901F9018951F920F920FB664
:100E10000F9211240BB60F922F933F934F935F9332
:100E20006F937F938F939F93AF93BF93EF93FF93B2
:100E300048E850E064E870E081E090E06CDCFF910D
:100E4000EF91BF91AF919F918F917F916F915F9142
:100E50004F913F912F910F900BBE0F900FBE0F90AF
:100E60001F90189510923B0210923A0288EE93E080
:100E7000A0E0B0E080933C0290933D02A0933E023C
:100E8000B0933F028AE092E0909339028093380257
:100E900085EC90E0909345028093440284EC90E0CE
:100EA000909347028093460280EC90E09093490231
:100EB0008093480281EC90E090934B0280934A0229
:100EC00082EC90E090934D0280934C0286EC90E08F
:100ED00090934F0280934E02109251021092520250
:100EE00010925302109254028CE192E090936703A7
:100EF00080936603809165038033A0F491E0980F9E
:100F00009093650380936B0390E0FC01EE0FFF1F4D
:100F10008E0F9F1FFC01EB52FD4F88EB9BE09283ED
:100F2000818303C08FEF80936B0389E080936A0312
:100F30000895CF93DF93CDB7DEB72E970FB6F89411
:100F4000DEBF0FBECDBF789484B5826084BD84B50A
:100F5000816084BD85B5826085BD85B5816085BDB4
:100F600080916E00816080936E001092810080916C
:100F700081008260809381008091810081608093F4
:100F80008100809180008160809380008091B10019
:100F900084608093B1008091B00081608093B00044
:100FA0008091910082608093910080919100816096
:100FB0008093910080919000816080939000809157
:100FC000A10082608093A1008091A1008160809344
:100FD000A1008091A00081608093A00080912101F8
:100FE00082608093210180912101816080932101A1
:100FF0008091200181608093200180917A0084603B
:1010000080937A0080917A00826080937A00809148
:101010007A00816080937A0080917A008068809362
:101020007A001092C10086E693E069DC4FDB2B0169
:101030003C0188E8882E83E1982EA12CB12C46DB58
:10104000DC01CB0184199509A609B709883E9340B4
:10105000A105B105A0F321E0821A9108A108B10809
:1010600088EE480E83E0581E611C711C81149104A7
:10107000A104B10421F7E0914802F091490282E015
:101080008083E0914402F09145021082E091460293
:10109000F091470280E1808310925002E0914C026F
:1010A000F0914D0286E08083E0914A02F0914B027C
:1010B000808180618083E0914A02F0914B028081BF
:1010C00088608083E0914A02F0914B0280818068C1
:1010D0008083E0914A02F0914B0280818F7D808372
:1010E00088E392E09AD905970CF4D8C088E392E09F
:1010F00033D9182F88E392E090D9892B09F4CEC018
:101100001A32A1F718861F821A8619861C861B863A
:1011100060E070E0CE01079621DD2F8138858111D6
:101120000CC02115310511F0C901C3D118861F82E9
:101130001C861B861A86198606C01C861B8662E2E0
:1011400072E0C9012CD31CD997FD1CC08D329105CA
:10115000C9F089831A820B851C850F5F1F4FB80168
:10116000CE010796FBDC882371F32F8138858B85B0
:101170009C85BE016F5F7F4F820F931F10D31C872A
:101180000B87E1CF8B859C85039709F061C08F8128
:101190009885009729F410923302E3E3F2E001C04E
:1011A000FC01E080009729F410923302E3E3F2E0BF
:1011B00002C0FC013196F080009729F410923302AE
:1011C000E3E3F2E002C0FC013296D0801A82198279
:1011D0001C821B821E821D8260E070E0CE0101969F
:1011E000BDDC29813A8181110CC02115310511F036
:1011F000C9015FD11A8219821E821D821C821B8244
:1012000006C01E821D8262E272E0C901C8D2B8D84F
:1012100097FD19C08D871E860D811E810F5F1F4FA0
:10122000B801CE0101969ADC882389F329813A819D
:101230008D819E81BE01635F7F4F820F931FAFD26E
:101240001E830D83E4CF89819A8133D111E001C0DF
:1012500010E08F8198852DD1112301F16E2D0E2C78
:10126000000C770B880B990B0BDC6DE288E392E0A6
:101270000BD96F2D0F2C000C770B880B990B00DC12
:101280006DE288E392E000D96D2D0D2C000C770BF8
:10129000880B990BF5DB80E292E0E1DB83E292E0E0
:1012A000DEDB80E292E0DBDB5CD91ACF052E97FB18
:1012B00016F400940FD057FD05D01ED007FC02D0C5
:1012C00046F408C050954095309521953F4F4F4FBB
:1012D0005F4F089590958095709561957F4F8F4FE2
:1012E0009F4F08952BD0A59F900DB49F900DA49F64
:1012F000800D911D11240895A1E21A2EAA1BBB1B7B
:10130000FD010DC0AA1FBB1FEE1FFF1FA217B307D1
:10131000E407F50720F0A21BB30BE40BF50B661FE7
:10132000771F881F991F1A9469F7609570958095AB
:1013300090959B01AC01BD01CF010895A29FB00122
:10134000B39FC001A39F700D811D1124911DB29FF9
:10135000700D811D1124911D0895991B79E004C021
:10136000991F961708F0961B881F7A95C9F78095E4
:101370000895EE0FFF1F881F8BBF0790F691E02D99
:1013800019940F931F93CF93DF938230910510F43C
:1013900082E090E0E0917003F091710320E030E092
:1013A000A0E0B0E0309719F14081518102811381B2
:1013B00048175907C8F08417950769F4109731F05A
:1013C00012960C93129713961C9327C000937003E8
:1013D0001093710322C02115310519F042175307EC
:1013E00018F49A01BD01EF01DF01F801DBCF2115EF
:1013F0003105F9F0281B390B2430310580F48A813E
:101400009B816115710521F0FB019383828304C0E8
:101410009093710380937003FE01329644C0FE01E5
:10142000E20FF31F8193919322503109398328836E
:101430003AC020916E0330916F03232B41F4209129
:1014400002023091030230936F0320936E032091C8
:101450000002309101022115310541F42DB73EB74C
:101460004091040250910502241B350BE0916E035C
:10147000F0916F03E217F307A0F42E1B3F0B281720
:10148000390778F0AC014E5F5F4F2417350748F0FD
:101490004E0F5F1F50936F0340936E0381939193A0
:1014A00002C0E0E0F0E0CF01DF91CF911F910F91FA
:1014B0000895CF93DF93009709F481C0FC01329720
:1014C00013821282A0917003B0917103109781F47E
:1014D00020813181820F931F20916E0330916F0321
:1014E0002817390751F5F0936F03E0936E0367C037
:1014F000ED0120E030E0CE17DF0740F44A815B8148
:101500009E0141155105F1F0EA01F5CFD383C28365
:1015100040815181840F951FC817D90759F48881DC
:101520009981840F951F0296918380838A819B8184
:10153000938382832115310529F4F0937103E0939D
:1015400070033DC0E901FB83EA8349915991C40FBF
:10155000D51FEC17FD0761F480819181840F951FE1
:101560000296E90199838883828193819B838A8390
:10157000E0E0F0E012968D919C911397009719F09E
:10158000FD01DC01F7CF8D919C9111979D012E5F9C
:101590003F4F820F931F20916E0330916F032817E6
:1015A000390769F4309729F410927103109270038F
:1015B00002C013821282B0936F03A0936E03DF9177
:1015C000CF9108956F927F928F929F92AF92BF9228
:1015D000CF92DF92EF92FF920F931F93CF93DF93FF
:1015E000009781F4CB01DF91CF911F910F91FF9074
:1015F000EF90DF90CF90BF90AF909F908F907F90B3
:101600006F90BFCEFC01E60FF71F9C0122503109FD
:10161000E217F30708F4A5C0EC01D9010D911C9164
:10162000119706171707A8F00530110508F497C0A1
:10163000C80104978617970708F491C00250110952
:10164000061B170B019311936D937C93CF0131DF30
:1016500086C05B01A01AB10A4C01800E911EA091B8
:101660007003B0917103612C712CE12CF12C109757
:1016700009F446C08D919C911197A815B905B1F553
:101680006C0142E0C40ED11CCA14DB0478F14C0199
:101690008A189B08640142E0C40ED11C1296BC90CB
:1016A00012971396AC91B5E0CB16D10440F0B282FC
:1016B000A38391828082D9016D937C9309C00E5FD0
:1016C0001F4F800F911FF90191838083EB2DFA2F1B
:1016D000E114F10431F0D7011396FC93EE931297C5
:1016E0003EC0F0937103E093700339C06816790629
:1016F00008F43C017D0112960D90BC91A02DB7CF4E
:1017000080916E0390916F0388169906E1F4661636
:101710007706C8F48091000290910102009741F48D
:101720008DB79EB74091040250910502841B950B22
:10173000E817F907B0F4F0936F03E0936E03F90133
:10174000718360830CC0CB011CDE7C01009749F0E3
:10175000A801BE011BD0CE01ACDEC70104C0CE0182
:1017600002C080E090E0DF91CF911F910F91FF9038
:10177000EF90DF90CF90BF90AF909F908F907F9031
:101780006F90089581E090E0F89410C0FB01DC01B7
:1017900002C001900D9241505040D8F70895FB01CE
:1017A000DC0101900D920020E1F70895F894FFCF3D
:1017B0000000720380000000000044026F019D01E0
:1017C00090020D02AC01FF01000000007F045004F4
:0A17D0000D0A00776F726B730000C2
:00000001FF
