:1000000007C1000035C1000033C1000031C100004C
:100010002FC100002DC100002BC1000029C100002C
:1000200027C1000025C1000023C1000021C100003C
:100030001FC100001DC100001BC1000019C100004C
:1000400017C10000EDC6000013C1000011C100007F
:100050000FC100000DC100000BC1000010C6000060
:1000600007C10000D6C50000ABC5000001C10000FB
:10007000FFC00000FDC00000FBC00000F9C0000090
:10008000A2C60000F5C00000F3C00000F1C00000EF
:10009000EFC00000EDC00000EBC00000E9C00000B0
:1000A000E7C00000E5C0000061C60000E1C000003C
:1000B000DFC00000DDC00000DBC000002AC6000079
:1000C000D7C00000D5C00000D3C00000D1C00000E0
:1000D000CFC00000CDC00000CBC00000C9C00000F0
:1000E000C7C0000029032C031B031F032303630362
:1000F000300334033A033E03420348034C035003E6
:10010000630356035A035E03000021002400270006
:100110002A002D0030003300010100000401070116
:100120000A0100002200250028002B002E003100CB
:10013000340002010000050108010B010505050559
:10014000070508080808020202020A0A080804044F
:10015000040401010101010101010303030303037D
:100160000303040707070C0C0C0C0C0C0C0C02020C
:10017000020206060606060606060B0B0B0B0B0B09
:100180000B0B010210202008081020401020408096
:10019000020102010804020101020408102040804B
:1001A00080402010080402018004020180402010D9
:1001B0000804020108040201010204081020408022
:1001C000010204081020408000000A0B02090C0DF7
:1001D0000E080703040100000000000000000000FA
:1001E000000000000000000000000000000000000F
:1001F00000000000121110000000000000000000CC
:1002000000000000000000000000000000003D07AA
:1002100011241FBECFEFD1E2DEBFCDBF00E00CBF87
:1002200012E0A0E0B2E0EAE2F7E100E00BBF02C0BA
:1002300007900D92A432B107D9F723E0A4E2B2E00F
:1002400001C01D92AC36B207E1F711E0C8E0D1E081
:1002500000E006C021970109802FFE010E94760967
:10026000C730D10780E00807A9F76ED60C94930B2E
:10027000C7CEFC019081903388F5818128E830E079
:10028000281B310987FD3395220F331F220F331F9F
:100290006217730784F0828148E552E0481B5109D8
:1002A00087FD5395440F551F440F551F9B0146175B
:1002B00057070CF49A0122503109220F331F4FB710
:1002C000F894892F90E0FC01EE0FFF1F8E0F9F1F07
:1002D000FC01E153FD4F328321834FBF0895FC01A0
:1002E000248135816217730720F480819181009702
:1002F00029F410922D028DE292E00895860F971F47
:100300000895CF92DF92EF92FF920F931F93CF93B6
:10031000DF936C017A018B01C0E0D0E0CE15DF05E0
:1003200081F0D8016D918D01D601ED91FC91019084
:10033000F081E02DC6011995892B11F02196EECFA1
:100340007E01C701DF91CF911F910F91FF90EF9038
:10035000DF90CF900895089580E090E00895FC012B
:10036000538D448D252F30E0842F90E0821B930B1A
:10037000541710F0CF96089501970895FC01918DC0
:10038000828D981761F0828DDF01A80FB11D5D96F7
:100390008C91928D9F5F9F73928F90E008958FEF65
:1003A0009FEF08952FB7F89480912E0290912F021D
:1003B000A0913002B09131022FBF80933A02909306
:1003C0003B02A0933C02B0933D0282E392E0D6DF71
:1003D00097FF26C02FB7F89480912E0290912F029C
:1003E000A0913002B09131022FBF40913A0250915A
:1003F0003B0260913C0270913D02841B950BA60B61
:10040000B70B4091360250913702609138027091DB
:10041000390284179507A607B707B8F28FEF9FEF49
:100420000895FC01918D828D981731F0828DE80F2F
:10043000F11D858D90E008958FEF9FEF0895FC01E9
:10044000918D228D892F90E0805C9F4F821B9109B6
:100450008F739927089582E392E0F1DF21E0892BE1
:1004600009F420E0822F0895FC01848DDF01A80F9C
:10047000B11DA35ABF4F2C91848D90E001968F73CC
:100480009927848FA689B7892C93A089B1898C91EB
:10049000837080648C93938D848D981306C002883A
:1004A000F389E02D80818F7D80830895EF92FF9204
:1004B0000F931F93CF93DF93EC0181E0888F9B8D87
:1004C0008C8D981305C0E889F989808185FD25C048
:1004D000F62E0B8D10E00F5F1F4F0F731127E02ECC
:1004E0008C8DE8120BC00FB607FCFACFE889F989AA
:1004F000808185FFF5CFCE01B7DFF2CF8B8DFE0176
:10050000E80FF11DE35AFF4FF0829FB7F8940B8F6D
:10051000EA89FB89808180620AC09FB7F894EE89DE
:10052000FF896083E889F989808183708064808392
:100530009FBF81E090E0DF91CF911F910F91FF90DD
:10054000EF900895CF93DF93EC01888D8823C1F05D
:10055000EA89FB89808185FD05C0A889B9898C91CC
:1005600086FD0EC00FB607FCF5CF808185FFF2CF68
:10057000A889B9898C9185FFEDCFCE0175DFE8CFD1
:10058000DF91CF91089580E090E0892B19F063DF2F
:10059000811125C080E090E0892B41F080E090E05F
:1005A000892B21F00E94000081111CC080E090E0A6
:1005B000892B41F080E090E0892B21F00E9400001F
:1005C000811113C080E090E0892BA1F080E090E0E1
:1005D000892B81F00E94000081110AC008950E94B9
:1005E0000000D8CF0E940000E1CF0E940000EACFB7
:1005F0000C9400000895362F90E0FC01E853FE4F64
:100600004491FC01EE57FE4F2491FC01E45CFE4F47
:100610009491992309F46BC0442309F454C050E029
:10062000FA013197E231F10508F04DC08827EE5804
:10063000FF4F8F4F5BC6809180008F7707C08091FE
:1006400080008F7D03C080918000877F8093800031
:100650003AC084B58F7702C084B58F7D84BD33C026
:100660008091B0008F7703C08091B0008F7D809320
:10067000B00029C0809190008F7707C080919000D2
:100680008F7D03C080919000877F809390001BC076
:100690008091A0008F7707C08091A0008F7D03C05C
:1006A0008091A000877F8093A0000DC080912001E1
:1006B0008F7707C0809120018F7D03C0809120013A
:1006C000877F80932001E92FF0E0EE0FFF1FEE5DA2
:1006D000FE4FA591B4919FB7F894311104C08C914D
:1006E0002095282302C0EC912E2B2C939FBF0895B8
:1006F0003FB7F8948091290290912A02A0912B0291
:10070000B0912C0226B5A89B05C02F3F19F0019689
:10071000A11DB11D3FBFBA2FA92F982F8827820F87
:10072000911DA11DB11DBC01CD0142E0660F771FD7
:10073000881F991F4A95D1F70895CF92DF92EF92C3
:10074000FF920F931F93CF93DF936C018B017A017C
:10075000EC01CC5DDD4F888187FF04C0FB01118275
:10076000108224C02CE02C9DC0012D9D900D1124E1
:100770002881AC01420F511D27FD5A9520915F033E
:1007800030E04217530794F42881AC01420F511D09
:1007900027FD5A959A01FA01EE0FFF1F2E0F3F1FFA
:1007A000F901E153FD4F208126FD19C088818F5F3B
:1007B00088832CE02C9DC0012D9D900D1124288153
:1007C000AC01420F511D27FD5A9520915F0330E087
:1007D00042175307B4F428812C303CF112C0288111
:1007E000820F911D27FD9A95FC01EE0FFF1F8E0FC2
:1007F0009F1FFC01E153FD4F808160E08F73FBDEA2
:10080000D5CFF80180819181049680349C4918F4F9
:1008100080E49CE904C0F801808191810496F7018D
:10082000918380838FEF888344C0F8014081518198
:100830002881BC01620F711D27FD7A959B01FB0188
:10084000EE0FFF1F2E0F3F1FF901E153FD4F2181D6
:100850003281240F351FF701318320832881AC01B9
:10086000420F511D27FD5A959A01FA01EE0FFF1F05
:100870002E0F3F1FF901E153FD4F208126FF19C0C4
:100880002881820F911D27FD9A95FC01EE0FFF1F15
:100890008E0F9F1FFC01E153FD4F808161E08F733C
:1008A000DF91CF911F910F91FF90EF90DF90CF904C
:1008B000A2CEDF91CF911F910F91FF90EF90DF902B
:1008C000CF900895CF93DF93EC01653614F064E682
:1008D00003C06C390CF46CE96A838B81882311F0B6
:1008E00061956A832A81822F220F990BAA0BBB0B79
:1008F0009C01AD012C593F4F4F4F5F4FA8EEB3E025
:10090000AED428EC30E040E050E08DD4CA01B9010B
:1009100068517C4F8F4F9F4FCE010596DF91CF914D
:10092000A8CCCF93DF93DC019C012B5F3F4F159642
:100930008C911597803308F072C014964C911497DF
:10094000842F90E0FC01EE57FE4F5491FC01E45CD3
:10095000FE4F8491882399F090E0880F991FFC0145
:10096000E85FFE4FC591D491FC01EE5DFE4F85918D
:1009700094918FB7F894E881E52BE8838FBF1596A3
:100980008C911597E82FF0E0BF01660F771FE60FF7
:10099000F71FE153FD4F4F739081907C492B4083AB
:1009A00016961C92169717961C9217976CE092D485
:1009B0009CE0899FE001112460E070E0AE01460FE9
:1009C000571FFA01EE0FFF1F4E0F5F1FFA01E15391
:1009D000FD4F908196FD16C06F5F7F4F6C307105A3
:1009E00069F7813011F51092800082E080938100D8
:1009F0001092850010928400B19A80916F008260FD
:100A000080936F001596EC91F0E0CF01880F991F4D
:100A1000E80FF91FE153FD4F8081806480836CED06
:100A200075E0C901DF91CF9124CC823061F410923E
:100A3000900080939100109295001092940088BBD2
:100A400080937100DFCF833069F41092A00082E0C0
:100A50008093A1001092A5001092A40089BB8093FE
:100A60007200D0CF8111CECF1092200182E080930E
:100A7000210110922501109224018ABB80937300FA
:100A8000C1CF8F929F92AF92BF920F931F93CF933C
:100A9000DF93CDB7DEB7A1970FB6F894DEBF0FBED8
:100AA000CDBF19A2423008F44AE08E010F5D1F4FFE
:100AB000842E912CA12CB12CA5019401DAD3E62F20
:100AC000B901CA0101501109EA3014F4E05D01C016
:100AD000E95CD801EC93232B242B252B69F7011516
:100AE000110569F0F80101900020E9F73197AF0195
:100AF000401B510BB80182E392E003DC02C080E0AE
:100B000090E0A1960FB6F894DEBF0FBECDBFDF9187
:100B1000CF911F910F91BF90AF909F908F900895AC
:100B2000CF92DF92EF92FF92CF93DF9397FF19C09E
:100B30006B017C016DE282E392E0B8DCEC01662798
:100B40007727CB016C197D098E099F094AE099DF4F
:100B50008C0F9D1FDF91CF91FF90EF90DF90CF9092
:100B600008954AE0DF91CF91FF90EF90DF90CF9012
:100B700088CF0F931F93CF93DF93EC0188819981E6
:100B8000009729F02A813B812617370780F48B01D3
:100B90006F5F7F4FD4D4009761F0998388831B8364
:100BA0000A832C813D81232B11F4FC01108281E00A
:100BB00001C080E0DF91CF911F910F9108959FD5E3
:100BC0001F920F920FB60F9211240BB60F922F9314
:100BD0003F934F935F936F937F938F939F93AF93C5
:100BE000BF93EF93FF9382E392E03EDCFF91EF919E
:100BF000BF91AF919F918F917F916F915F914F9135
:100C00003F912F910F900BBE0F900FBE0F901F9032
:100C100018951F920F920FB60F9211240BB60F92D8
:100C20002F938F939F93EF93FF93E0914202F09164
:100C300043028081E0914802F091490282FD12C096
:100C4000908180914B028F5F8F7320914C028217AD
:100C500051F0E0914B02F0E0EE5CFD4F958F8093F8
:100C60004B0201C08081FF91EF919F918F912F9155
:100C70000F900BBE0F900FBE0F901F9018951F92F4
:100C80000F920FB60F9211242F933F938F939F9340
:100C9000AF93BF9380912E0290912F02A0913002CA
:100CA000B09131023091280223E0230F2D3720F438
:100CB0000196A11DB11D05C026E8230F0296A11DB6
:100CC000B11D2093280280932E0290932F02A093AF
:100CD0003002B09331028091290290912A02A091B2
:100CE0002B02B0912C020196A11DB11D8093290207
:100CF00090932A02A0932B02B0932C02BF91AF9144
:100D00009F918F913F912F910F900FBE0F901F9049
:100D100018951F920F920FB60F9211240BB60F92D7
:100D20002F933F934F935F936F937F938F939F93F3
:100D3000AF93BF93EF93FF9348E251E064E271E019
:100D400080E090E0FADCFF91EF91BF91AF919F912D
:100D50008F917F916F915F914F913F912F910F9064
:100D60000BBE0F900FBE0F901F9018951F920F9201
:100D70000FB60F9211240BB60F922F933F934F9300
:100D80005F936F937F938F939F93AF93BF93EF93F3
:100D9000FF9348EA50E064EA70E083E090E0CDDC45
:100DA000FF91EF91BF91AF919F918F917F916F9143
:100DB0005F914F913F912F910F900BBE0F900FBEFF
:100DC0000F901F9018951F920F920FB60F9211243B
:100DD0000BB60F922F933F934F935F936F937F9335
:100DE0008F939F93AF93BF93EF93FF9348E950E0A6
:100DF00064E970E082E090E0A0DCFF91EF91BF91A8
:100E0000AF919F918F917F916F915F914F913F91A2
:100E10002F910F900BBE0F900FBE0F901F90189543
:100E20001F920F920FB60F9211240BB60F922F93B1
:100E30003F934F935F936F937F938F939F93AF9362
:100E4000BF93EF93FF9348E850E064E870E081E0DF
:100E500090E073DCFF91EF91BF91AF919F918F91E3
:100E60007F916F915F914F913F912F910F900BBEAA
:100E70000F900FBE0F901F90189510923502109290
:100E8000340288EE93E0A0E0B0E0809336029093C5
:100E90003702A0933802B09339028AE092E090932F
:100EA00033028093320285EC90E090933F0280936E
:100EB0003E0284EC90E0909341028093400280ECEB
:100EC00090E0909343028093420281EC90E09093F3
:100ED00045028093440282EC90E090934702809315
:100EE000460286EC90E0909349028093480210926B
:100EF0004B0210924C0210924D0210924E028CE165
:100F000092E0909361038093600380915F0380334C
:100F1000A0F491E0980F90935F038093650390E0B5
:100F2000FC01EE0FFF1F8E0F9F1FFC01E153FD4FD1
:100F300088EB9BE09283818303C08FEF80936503EE
:100F400089E0809364030895CF93DF93CDB7DEB734
:100F500028970FB6F894DEBF0FBECDBF789484B546
:100F6000826084BD84B5816084BD85B5826085BDA5
:100F700085B5816085BD80916E00816080936E0033
:100F80001092810080918100826080938100809125
:100F900081008160809381008091800081608093D6
:100FA00080008091B10084608093B1008091B00096
:100FB00081608093B0008091910082608093910065
:100FC0008091910081608093910080919000816078
:100FD000809390008091A10082608093A100809115
:100FE000A10081608093A1008091A0008160809326
:100FF000A0008091210182608093210180912101D4
:101000008160809321018091200181608093200183
:1010100080917A00846080937A0080917A00826067
:1010200080937A0080917A00816080937A00809129
:101030007A00806880937A001092C10080E693E085
:1010400070DC56DB2B013C0188E8882E83E1982E6A
:10105000A12CB12C4DDBDC01CB0184199509A6092B
:10106000B709883E9340A105B105A0F321E0821A9B
:101070009108A108B10888EE480E83E0581E611C53
:10108000711C81149104A104B10421F7E091420282
:10109000F091430282E08083E0913E02F0913F02B2
:1010A0001082E0914002F091410280E18083109231
:1010B0004A02E0914602F091470286E08083E09187
:1010C0004402F0914502808180618083E091440276
:1010D000F0914502808188608083E0914402F09124
:1010E0004502808180688083E0914402F09145024E
:1010F00080818F7D808382E392E0A1D905970CF4F3
:1011000079C01A8219821C821B821E821D8260E0B5
:1011100070E0CE0101962DDD29813A8181110CC04C
:101120002115310511F0C90181D11A8219821E825F
:101130001D821C821B8206C01E821D8262E272E03A
:10114000C901EAD22FD997FD19C08F8318860D8166
:101150001E810F5F1F4FB801CE0101960ADD882363
:1011600089F329813A818D819E81BE01695F7F4F1C
:10117000820F931FD1D21E830D83E4CF61E070E014
:10118000CE010196ACD8FC0180818D32A9F163E0DB
:1011900070E0CE010196A3D8FC0180818D3261F10F
:1011A00010E089819A8142D1112321F16D2D0D2CFE
:1011B000000C770B880B990BB3DC6DE282E392E0B5
:1011C00075D96E2D0E2C000C770B880B990BA8DCB3
:1011D0006DE282E392E06AD96F2D0F2C000C770B41
:1011E000880B990B9DDC42E050E060E272E082E304
:1011F00092E087D8C8D97FCF60E070E0CE01019639
:101200006ED8FC01D08062E070E0CE01019667D814
:10121000FC01E08064E070E0CE01019660D8FC0142
:10122000F08011E0BECF052E97FB16F400940FD08E
:1012300057FD05D01ED007FC02D046F408C05095DB
:101240004095309521953F4F4F4F5F4F08959095B2
:101250008095709561957F4F8F4F9F4F08952BD04C
:10126000A59F900DB49F900DA49F800D911D1124FA
:101270000895A1E21A2EAA1BBB1BFD010DC0AA1FD7
:10128000BB1FEE1FFF1FA217B307E407F50720F0EF
:10129000A21BB30BE40BF50B661F771F881F991F6A
:1012A0001A9469F760957095809590959B01AC01B3
:1012B000BD01CF010895A29FB001B39FC001A39FBC
:1012C000700D811D1124911DB29F700D811D11247F
:1012D000911D0895991B79E004C0991F961708F095
:1012E000961B881F7A95C9F780950895EE0FFF1F0A
:1012F000881F8BBF0790F691E02D19940F931F93D1
:10130000CF93DF938230910510F482E090E0E0917A
:101310006A03F0916B0320E030E0A0E0B0E030978A
:1013200019F1408151810281138148175907C8F092
:101330008417950769F4109731F012960C93129761
:1013400013961C9327C000936A0310936B0322C06B
:101350002115310519F04217530718F49A01BD0100
:10136000EF01DF01F801DBCF21153105F9F0281B72
:10137000390B2430310580F48A819B816115710518
:1013800021F0FB019383828304C090936B038093CD
:101390006A03FE01329644C0FE01E20FF31F8193FF
:1013A000919322503109398328833AC020916803F0
:1013B00030916903232B41F4209102023091030202
:1013C0003093690320936803209100023091010259
:1013D0002115310541F42DB73EB7409104025091DB
:1013E0000502241B350BE0916803F0916903E217B5
:1013F000F307A0F42E1B3F0B2817390778F0AC0138
:101400004E5F5F4F2417350748F04E0F5F1F509314
:101410006903409368038193919302C0E0E0F0E098
:10142000CF01DF91CF911F910F910895CF93DF935B
:10143000009709F481C0FC01329713821282A091B7
:101440006A03B0916B03109781F420813181820F80
:10145000931F20916803309169032817390751F5CC
:10146000F0936903E093680367C0ED0120E030E08A
:10147000CE17DF0740F44A815B819E01411551057B
:10148000F1F0EA01F5CFD383C28340815181840F0B
:10149000951FC817D90759F488819981840F951F22
:1014A0000296918380838A819B8193838283211515
:1014B000310529F4F0936B03E0936A033DC0E90121
:1014C000FB83EA8349915991C40FD51FEC17FD079F
:1014D00061F480819181840F951F0296E9019983BF
:1014E0008883828193819B838A83E0E0F0E0129677
:1014F0008D919C911397009719F0FD01DC01F7CFB6
:101500008D919C9111979D012E5F3F4F820F931FEC
:1015100020916803309169032817390769F43097DF
:1015200029F410926B0310926A0302C01382128294
:10153000B0936903A0936803DF91CF9108956F92F0
:101540007F928F929F92AF92BF92CF92DF92EF9253
:10155000FF920F931F93CF93DF93009781F4CB01FA
:10156000DF91CF911F910F91FF90EF90DF90CF907F
:10157000BF90AF909F908F907F906F90BFCEFC01F7
:10158000E60FF71F9C0122503109E217F30708F418
:10159000A5C0EC01D9010D911C91119706171707F1
:1015A000A8F00530110508F497C0C8010497861704
:1015B000970708F491C002501109061B170B0193FD
:1015C00011936D937C93CF0131DF86C05B01A01A2C
:1015D000B10A4C01800E911EA0916A03B0916B0379
:1015E000612C712CE12CF12C109709F446C08D91DF
:1015F0009C911197A815B905B1F56C0142E0C40E94
:10160000D11CCA14DB0478F14C018A189B086401D0
:1016100042E0C40ED11C1296BC9012971396AC9166
:10162000B5E0CB16D10440F0B282A38391828082D0
:10163000D9016D937C9309C00E5F1F4F800F911FDE
:10164000F90191838083EB2DFA2FE114F10431F03D
:10165000D7011396FC93EE9312973EC0F0936B0361
:10166000E0936A0339C06816790608F43C017D01ED
:1016700012960D90BC91A02DB7CF809168039091E8
:10168000690388169906E1F466167706C8F4809116
:10169000000290910102009741F48DB79EB74091EE
:1016A000040250910502841B950BE817F907B0F46A
:1016B000F0936903E0936803F901718360830CC0C0
:1016C000CB011CDE7C01009749F0A801BE011BD0B4
:1016D000CE01ACDEC70104C0CE0102C080E090E0C4
:1016E000DF91CF911F910F91FF90EF90DF90CF90FE
:1016F000BF90AF909F908F907F906F90089581E002
:1017000090E0F89410C0FB01DC0102C001900D9242
:1017100041505040D8F70895FB01DC0101900D9233
:0A1720000020E1F70895F894FFCFD0
:10172A0000006C0380000000000056028101AF0136
:10173A00A2021F02BE01110200000000910462040D
:04174A000D0A000084
:00000001FF
