:1000000007C1000034C1000032C1000030C100004F
:100010002EC100002CC100002AC1000028C1000030
:1000200026C1000024C1000022C1000020C1000040
:100030001EC100001CC100001AC1000018C1000050
:1000400016C10000F5C6000012C1000010C100007A
:100050000EC100000CC100000AC1000018C600005B
:1000600006C10000DEC50000B3C5000000C10000ED
:10007000FEC00000FCC00000FAC00000F8C0000094
:10008000AAC60000F4C00000F2C00000F0C00000EA
:10009000EEC00000ECC00000EAC00000E8C00000B4
:1000A000E6C00000E4C0000069C60000E0C0000037
:1000B000DEC00000DCC00000DAC0000032C6000074
:1000C000D6C00000D4C00000D2C00000D0C00000E4
:1000D000CEC00000CCC00000CAC00000C8C00000F4
:1000E000C6C000001603190308030C0310035003D5
:1000F0001D03210327032B032F03350339033D037E
:100100005003430347034B03000021002400270052
:100110002A002D0030003300010100000401070116
:100120000A0100002200250028002B002E003100CB
:10013000340002010000050108010B010505050559
:10014000070508080808020202020A0A080804044F
:10015000040401010101010101010303030303037D
:100160000303040707070C0C0C0C0C0C0C0C02020C
:10017000020206060606060606060B0B0B0B0B0B09
:100180000B0B010210202008081020401020408096
:10019000020102010804020101020408102040804B
:1001A00080402010080402018004020180402010D9
:1001B0000804020108040201010204081020408022
:1001C000010204081020408000000A0B02090C0DF7
:1001D0000E080703040100000000000000000000FA
:1001E000000000000000000000000000000000000F
:1001F00000000000121110000000000000000000CC
:1002000000000000000000000000000000004507A2
:1002100011241FBECFEFD1E2DEBFCDBF00E00CBF87
:1002200012E0A0E0B2E0ECE6F6E100E00BBF02C0B5
:1002300007900D92A232B107D9F723E0A2E2B2E013
:1002400001C01D92A936B207E1F711E0C8E0D1E084
:1002500000E005C021970109802FFE01E8D7C730D3
:10026000D10780E00807B1F777D60C94340BC8CEDD
:10027000FC019081903388F5818128E830E0281BCB
:10028000310987FD3395220F331F220F331F621769
:10029000730784F0828148E552E0481B510987FDCD
:1002A0005395440F551F440F551F9B014617570781
:1002B0000CF49A0122503109220F331F4FB7F894E2
:1002C000892F90E0FC01EE0FFF1F8E0F9F1FFC0196
:1002D000E453FD4F328321834FBF08950895CF9299
:1002E000DF92EF92FF920F931F93CF93DF936C01F6
:1002F0007A018B01C0E0D0E0CE15DF0581F0D80196
:100300006D918D01D601ED91FC910190F081E02D70
:10031000C6011995892B11F02196EECF7E01C701F8
:10032000DF91CF911F910F91FF90EF90DF90CF90D1
:10033000089580E090E00895FC01538D448D252FB1
:1003400030E0842F90E0821B930B541710F0CF966F
:10035000089501970895FC01918D828D981761F0A1
:10036000828DDF01A80FB11D5D968C91928D9F5FEC
:100370009F73928F90E008958FEF9FEF08952FB7AE
:10038000F89480912B0290912C02A0912D02B091B3
:100390002E022FBF8093370290933802A093390228
:1003A000B0933A028FE292E0D6DF97FF26C02FB7D4
:1003B000F89480912B0290912C02A0912D02B09183
:1003C0002E022FBF409137025091380260913902BE
:1003D00070913A02841B950BA60BB70B4091330228
:1003E000509134026091350270913602841795075E
:1003F000A607B707B8F28FEF9FEF0895FC01918D24
:10040000828D981731F0828DE80FF11D858D90E077
:1004100008958FEF9FEF0895FC01918D228D892F14
:1004200090E0805C9F4F821B91098F7399270895FC
:100430008FE292E0F1DF21E0892B09F420E0822FA6
:100440000895FC01848DDF01A80FB11DA35ABF4F91
:100450002C91848D90E001968F739927848FA689C3
:10046000B7892C93A089B1898C91837080648C9317
:10047000938D848D981306C00288F389E02D8081C6
:100480008F7D80830895EF92FF920F931F93CF93F8
:10049000DF93EC0181E0888F9B8D8C8D981305C0D4
:1004A000E889F989808185FD25C0F62E0B8D10E045
:1004B0000F5F1F4F0F731127E02E8C8DE8120BC0BA
:1004C0000FB607FCFACFE889F989808185FFF5CF5F
:1004D000CE01B7DFF2CF8B8DFE01E80FF11DE35A9D
:1004E000FF4FF0829FB7F8940B8FEA89FB898081D8
:1004F00080620AC09FB7F894EE89FF896083E8891B
:10050000F98980818370806480839FBF81E090E05F
:10051000DF91CF911F910F91FF90EF900895CF93AE
:10052000DF93EC01888D8823C1F0EA89FB89808103
:1005300085FD05C0A889B9898C9186FD0EC00FB6CE
:1005400007FCF5CF808185FFF2CFA889B9898C910E
:1005500085FFEDCFCE0175DFE8CFDF91CF91089514
:1005600080E090E0892B19F063DF811125C080E0E5
:1005700090E0892B41F080E090E0892B21F00E94EF
:10058000000081111CC080E090E0892B41F080E0E8
:1005900090E0892B21F00E940000811113C080E0BF
:1005A00090E0892BA1F080E090E0892B81F00E94FF
:1005B000000081110AC008950E940000D8CF0E9457
:1005C0000000E1CF0E940000EACF0C9400000895E3
:1005D000362F90E0FC01E853FE4F4491FC01EE57AA
:1005E000FE4F2491FC01E45CFE4F9491992309F4A1
:1005F0006BC0442309F454C050E0FA013197E23152
:10060000F10508F04DC08827EE58FF4F8F4F0FC6F9
:10061000809180008F7707C0809180008F7D03C01C
:1006200080918000877F809380003AC084B58F7767
:1006300002C084B58F7D84BD33C08091B0008F77B8
:1006400003C08091B0008F7D8093B00029C080915D
:1006500090008F7707C0809190008F7D03C08091BC
:100660009000877F809390001BC08091A0008F77BF
:1006700007C08091A0008F7D03C08091A000877F7C
:100680008093A0000DC0809120018F7707C08091DA
:1006900020018F7D03C080912001877F80932001FE
:1006A000E92FF0E0EE0FFF1FEE5DFE4FA591B49134
:1006B0009FB7F894311104C08C912095282302C073
:1006C000EC912E2B2C939FBF08953FB7F894809107
:1006D000270290912802A0912902B0912A0226B502
:1006E000A89B05C02F3F19F00196A11DB11D3FBF6A
:1006F000BA2FA92F982F8827820F911DA11DB11DF8
:10070000BC01CD0142E0660F771F881F991F4A95F3
:10071000D1F70895CF92DF92EF92FF920F931F933C
:10072000CF93DF936C018B017A01EC01CE5DDD4F3D
:10073000888187FF04C0FB011182108224C02CE055
:100740002C9DC0012D9D900D11242881AC01420FDC
:10075000511D27FD5A9520915C0330E04217530745
:1007600094F42881AC01420F511D27FD5A959A013E
:10077000FA01EE0FFF1F2E0F3F1FF901E453FD4F4B
:10078000208126FD19C088818F5F88832CE02C9DF5
:10079000C0012D9D900D11242881AC01420F511DE7
:1007A00027FD5A9520915C0330E042175307B4F4BB
:1007B00028812C303CF112C02881820F911D27FD29
:1007C0009A95FC01EE0FFF1F8E0F9F1FFC01E45353
:1007D000FD4F808160E08F73FBDED5CFF801808113
:1007E0009181049680349C4918F480E49CE904C00B
:1007F000F801808191810496F701918380838FEFC6
:10080000888344C0F801408151812881BC01620F76
:10081000711D27FD7A959B01FB01EE0FFF1F2E0F27
:100820003F1FF901E453FD4F21813281240F351F11
:10083000F701318320832881AC01420F511D27FD30
:100840005A959A01FA01EE0FFF1F2E0F3F1FF90173
:10085000E453FD4F208126FF19C02881820F911D8E
:1008600027FD9A95FC01EE0FFF1F8E0F9F1FFC01C5
:10087000E453FD4F808161E08F73DF91CF911F9131
:100880000F91FF90EF90DF90CF90A2CEDF91CF91AC
:100890001F910F91FF90EF90DF90CF900895CF932D
:1008A000DF93EC01653614F064E603C06C390CF498
:1008B0006CE96A838B81882311F061956A832A81B0
:1008C000822F220F990BAA0BBB0B9C01AD012C5957
:1008D0003F4F4F4F5F4FA8EEB3E062D428EC30E0BB
:1008E00040E050E041D4CA01B90168517C4F8F4FBC
:1008F0009F4FCE010596DF91CF91BACCCF93DF9376
:10090000DC019C012B5F3F4F15968C91159780332E
:1009100008F072C014964C911497842F90E0FC015B
:10092000EE57FE4F5491FC01E45CFE4F8491882306
:1009300099F090E0880F991FFC01E85FFE4FC59188
:10094000D491FC01EE5DFE4F859194918FB7F894A0
:10095000E881E52BE8838FBF15968C911597E82FDA
:10096000F0E0BF01660F771FE60FF71FE453FD4F5E
:100970004F739081907C492B408316961C9216975A
:1009800017961C9217976CE046D49CE0899FE00173
:10099000112460E070E0AE01460F571FFA01EE0F20
:1009A000FF1F4E0F5F1FFA01E453FD4F908196FD2C
:1009B00016C06F5F7F4F6C30710569F7813011F59C
:1009C0001092800082E08093810010928500109246
:1009D0008400B19A80916F00826080936F001596B9
:1009E000EC91F0E0CF01880F991FE80FF91FE45355
:1009F000FD4F8081806480836CED75E0C901DF91DB
:100A0000CF9136CC823061F41092900080939100A7
:100A1000109295001092940088BB80937100DFCFF4
:100A2000833069F41092A00082E08093A1001092BC
:100A3000A5001092A40089BB80937200D0CF8111D1
:100A4000CECF1092200182E08093210110922501E7
:100A5000109224018ABB80937300C1CF0F931F9320
:100A6000CF93DF938C01EB01FC0180819181009792
:100A700031F0688179816115710599F478D48881A4
:100A80009981F801918380838A819B8193838283FA
:100A90008C819D8195838483198218821B821A829E
:100AA0000EC0F801428153812C813D8142175307CA
:100AB00028F3D3D58C819D81F801958384831D8291
:100AC0001C82DF91CF911F910F9108950F931F9377
:100AD000CF93DF93EC0188819981009729F02A81D7
:100AE0003B812617370780F48B016F5F7F4FC8D497
:100AF000009761F0998388831B830A832C813D8151
:100B0000232B11F4FC01108281E001C080E0DF9111
:100B1000CF911F910F910895CF93DF93EC0119822C
:100B200018821B821A821D821C8260E070E0CEDF78
:100B30002881398181110EC02115310511F0C901BB
:100B400016D4198218821D821C821B821A82DF91A0
:100B5000CF9108951D821C8260E272E0C901DF918D
:100B6000CF917BC5EF92FF920F931F93CF93DF93AB
:100B70001F921F92CDB7DEB78C01CEDF00DC97FD50
:100B80001CC089831A82F801E480F580FFEFEF1A18
:100B9000FF0AB701C8019ADF882381F3F801208199
:100BA000318184819581BE016F5F7F4F820F931FDA
:100BB00054D5F801F582E482E1CFC8010F900F907F
:100BC000DF91CF911F910F91FF90EF90089538D54D
:100BD0001F920F920FB60F9211240BB60F922F9304
:100BE0003F934F935F936F937F938F939F93AF93B5
:100BF000BF93EF93FF938FE292E023DCFF91EF919D
:100C0000BF91AF919F918F917F916F915F914F9124
:100C10003F912F910F900BBE0F900FBE0F901F9022
:100C200018951F920F920FB60F9211240BB60F92C8
:100C30002F938F939F93EF93FF93E0913F02F09157
:100C400040028081E0914502F091460282FD12C08F
:100C50009081809148028F5F8F73209149028217A3
:100C600051F0E0914802F0E0E15DFD4F958F8093F7
:100C7000480201C08081FF91EF919F918F912F9148
:100C80000F900BBE0F900FBE0F901F9018951F92E4
:100C90000F920FB60F9211242F933F938F939F9330
:100CA000AF93BF9380912B0290912C02A0912D02C3
:100CB000B0912E023091260223E0230F2D3720F42D
:100CC0000196A11DB11D05C026E8230F0296A11DA6
:100CD000B11D2093260280932B0290932C02A093A7
:100CE0002D02B0932E028091270290912802A091AC
:100CF0002902B0912A020196A11DB11D80932702FD
:100D000090932802A0932902B0932A02BF91AF9139
:100D10009F918F913F912F910F900FBE0F901F9039
:100D200018951F920F920FB60F9211240BB60F92C7
:100D30002F933F934F935F936F937F938F939F93E3
:100D4000AF93BF93EF93FF9348E251E064E271E009
:100D500080E090E0DFDCFF91EF91BF91AF919F9138
:100D60008F917F916F915F914F913F912F910F9054
:100D70000BBE0F900FBE0F901F9018951F920F92F1
:100D80000FB60F9211240BB60F922F933F934F93F0
:100D90005F936F937F938F939F93AF93BF93EF93E3
:100DA000FF9348EA50E064EA70E083E090E0B2DC50
:100DB000FF91EF91BF91AF919F918F917F916F9133
:100DC0005F914F913F912F910F900BBE0F900FBEEF
:100DD0000F901F9018951F920F920FB60F9211242B
:100DE0000BB60F922F933F934F935F936F937F9325
:100DF0008F939F93AF93BF93EF93FF9348E950E096
:100E000064E970E082E090E085DCFF91EF91BF91B2
:100E1000AF919F918F917F916F915F914F913F9192
:100E20002F910F900BBE0F900FBE0F901F90189533
:100E30001F920F920FB60F9211240BB60F922F93A1
:100E40003F934F935F936F937F938F939F93AF9352
:100E5000BF93EF93FF9348E850E064E870E081E0CF
:100E600090E058DCFF91EF91BF91AF919F918F91EE
:100E70007F916F915F914F913F912F910F900BBE9A
:100E80000F900FBE0F901F90189510923202109283
:100E9000310288EE93E0A0E0B0E0809333029093BB
:100EA0003402A0933502B09336028AE092E0909328
:100EB000300280932F0285EC90E090933C02809367
:100EC0003B0284EC90E090933E0280933D0280ECE4
:100ED00090E09093400280933F0281EC90E09093E9
:100EE00042028093410282EC90E09093440280930E
:100EF000430286EC90E09093460280934502109264
:100F000048021092490210924A0210924B028CE160
:100F100092E090935E0380935D0380915C03803345
:100F2000A0F491E0980F90935C038093620390E0AB
:100F3000FC01EE0FFF1F8E0F9F1FFC01E453FD4FBE
:100F400088EB9BE09283818303C08FEF80936203E1
:100F500089E0809361030895CF93DF93CDB7DEB727
:100F60002C970FB6F894DEBF0FBECDBF789484B532
:100F7000826084BD84B5816084BD85B5826085BD95
:100F800085B5816085BD80916E00816080936E0023
:100F90001092810080918100826080938100809115
:100FA00081008160809381008091800081608093C6
:100FB00080008091B10084608093B1008091B00086
:100FC00081608093B0008091910082608093910055
:100FD0008091910081608093910080919000816068
:100FE000809390008091A10082608093A100809105
:100FF000A10081608093A1008091A0008160809316
:10100000A0008091210182608093210180912101C3
:101010008160809321018091200181608093200173
:1010200080917A00846080937A0080917A00826057
:1010300080937A0080917A00816080937A00809119
:101040007A00806880937A001092C1008DE593E069
:1010500055DC3BDB4B015C0188E8C82E83E1D82ED0
:10106000E12CF12C32DBDC01CB0188199909AA09AA
:10107000BB09883E9340A105B105A0F321E0C21A47
:10108000D108E108F10888EE880E83E0981EA11CC3
:10109000B11CC114D104E104F10421F7E0913F0235
:1010A000F091400282E08083E0913B02F0913C02AB
:1010B0001082E0913D02F0913E0280E18083109227
:1010C0004702E0914302F091440286E08083E09180
:1010D0004102F0914202808180618083E09141026F
:1010E000F0914202808188608083E0914102F0911A
:1010F0004202808180688083E0914102F091420247
:1011000080818F7D80838FE292E086D9059754F1AC
:101110008FE292E020D98FE292E01DD98D3241F426
:101120008FE292E018D98FE292E015D98D3299F0D2
:10113000CE010796F1DCCE01019614DDBE016F5F92
:101140007F4FCE0107968ADC89819A8110D18F81E9
:1011500098850DD107C08FE292E0FDD8682F8DE50C
:1011600093E09DDBFDD9CFCF052E97FB16F40094BD
:101170000FD057FD05D01ED007FC02D046F408C0A2
:1011800050954095309521953F4F4F4F5F4F0895B3
:1011900090958095709561957F4F8F4F9F4F0895E3
:1011A0002BD0A59F900DB49F900DA49F800D911DF5
:1011B00011240895A1E21A2EAA1BBB1BFD010DC02C
:1011C000AA1FBB1FEE1FFF1FA217B307E407F507F7
:1011D00020F0A21BB30BE40BF50B661F771F881FD3
:1011E000991F1A9469F760957095809590959B0169
:1011F000AC01BD01CF010895A29FB001B39FC00112
:10120000A39F700D811D1124911DB29F700D811D32
:101210001124911D0895991B79E004C0991F961718
:1012200008F0961B881F7A95C9F780950895EE0FF0
:10123000FF1F881F8BBF0790F691E02D19940F9325
:101240001F93CF93DF938230910510F482E090E0FA
:10125000E0916703F091680320E030E0A0E0B0E0A7
:10126000309719F140815181028113814817590744
:10127000C8F08417950769F4109731F012960C9313
:10128000129713961C9327C000936703109368036B
:1012900022C02115310519F04217530718F49A019D
:1012A000BD01EF01DF01F801DBCF21153105F9F0B8
:1012B000281B390B2430310580F48A819B8161150C
:1012C000710521F0FB019383828304C0909368032E
:1012D00080936703FE01329644C0FE01E20FF31FC4
:1012E0008193919322503109398328833AC0209108
:1012F000650330916603232B41F420910202309163
:10130000030230936603209365032091000230911D
:1013100001022115310541F42DB73EB74091040279
:1013200050910502241B350BE0916503F091660393
:10133000E217F307A0F42E1B3F0B2817390778F0AC
:10134000AC014E5F5F4F2417350748F04E0F5F1F0B
:1013500050936603409365038193919302C0E0E04C
:10136000F0E0CF01DF91CF911F910F910895CF93BE
:10137000DF93009709F481C0FC0132971382128237
:10138000A0916703B0916803109781F420813181A7
:10139000820F931F20916503309166032817390748
:1013A00051F5F0936603E093650367C0ED0120E01B
:1013B00030E0CE17DF0740F44A815B819E01411582
:1013C0005105F1F0EA01F5CFD383C2834081518109
:1013D000840F951FC817D90759F488819981840F04
:1013E000951F0296918380838A819B819383828358
:1013F0002115310529F4F0936803E09367033DC09C
:10140000E901FB83EA8349915991C40FD51FEC1779
:10141000FD0761F480819181840F951F0296E90197
:1014200099838883828193819B838A83E0E0F0E0C3
:1014300012968D919C911397009719F0FD01DC0194
:10144000F7CF8D919C9111979D012E5F3F4F820F99
:10145000931F20916503309166032817390769F4BB
:10146000309729F4109268031092670302C0138228
:101470001282B0936603A0936503DF91CF91089524
:101480006F927F928F929F92AF92BF92CF92DF9294
:10149000EF92FF920F931F93CF93DF93009781F406
:1014A000CB01DF91CF911F910F91FF90EF90DF90D3
:1014B000CF90BF90AF909F908F907F906F90BFCE56
:1014C000FC01E60FF71F9C0122503109E217F307D8
:1014D00008F4A5C0EC01D9010D911C9111970617D4
:1014E0001707A8F00530110508F497C0C801049744
:1014F0008617970708F491C002501109061B170BB5
:10150000019311936D937C93CF0131DF86C05B0112
:10151000A01AB10A4C01800E911EA0916703B091F0
:101520006803612C712CE12CF12C109709F446C052
:101530008D919C911197A815B905B1F56C0142E008
:10154000C40ED11CCA14DB0478F14C018A189B0824
:10155000640142E0C40ED11C1296BC9012971396FF
:10156000AC91B5E0CB16D10440F0B282A383918256
:101570008082D9016D937C9309C00E5F1F4F800F4D
:10158000911FF90191838083EB2DFA2FE114F1046F
:1015900031F0D7011396FC93EE9312973EC0F0936F
:1015A0006803E093670339C06816790608F43C01C4
:1015B0007D0112960D90BC91A02DB7CF809165034F
:1015C0009091660388169906E1F466167706C8F4CA
:1015D0008091000290910102009741F48DB79EB76F
:1015E0004091040250910502841B950BE817F907FE
:1015F000B0F4F0936603E0936503F90171836083AF
:101600000CC0CB011CDE7C01009749F0A801BE0193
:101610001BD0CE01ACDEC70104C0CE0102C080E009
:1016200090E0DF91CF911F910F91FF90EF90DF90AD
:10163000CF90BF90AF909F908F907F906F900895C4
:1016400081E090E0F89410C0FB01DC0102C0019041
:101650000D9241505040D8F70895FB01DC010190F4
:0C1660000D920020E1F70895F894FFCFF0
:10166C000000690380000000000043026F019C0130
:10167C008F020C02AB01FE01000000007E044F043F
:02168C0000005C
:00000001FF
